:100000000C9461000C9473000C9473000C947300B6
:100010000C9473000C9473000C9473000C94730094
:100020000C9473000C9473000C9473000C94730084
:100030000C9473000C9473000C9473000C94730074
:100040000C9428010C9473000C9473000C947300AE
:100050000C9473000C9473000C9473000C94730054
:100060000C9473000C94730000000000240027001F
:100070002A000000000023002600290000000000E4
:10008000250028002B0004040404040404040202D4
:100090000202020203030303030301020408102007
:1000A0004080010204081020010204081020000012
:1000B0000008000201000003040700000000000027
:1000C000000011241FBECFEFD8E0DEBFCDBF21E07E
:1000D000A0E0B1E001C01D92A930B207E1F70E9493
:1000E00072010C9427020C940000833081F028F4F4
:1000F000813099F08230A1F008958730A9F08830DE
:10010000B9F08430D1F4809180008F7D03C080915C
:1001100080008F7780938000089584B58F7702C028
:1001200084B58F7D84BD08958091B0008F7703C022
:100130008091B0008F7D8093B00008951F93CF937E
:10014000DF93EBEBF0E09491E7EAF0E0D491E3E9A0
:10015000F0E0C491CC23D9F0182F992319F0892FFE
:100160000E947500EC2FF0E0EE0FFF1FE458FF4FE8
:10017000A591B4918FB7F894111105C09C91ED2F02
:10018000E095E92302C0EC91ED2BEC938FBFDF915A
:10019000CF911F9108953FB7F894809105019091F8
:1001A0000601A0910701B091080126B5A89B05C0E2
:1001B0002F3F19F00196A11DB11D3FBFBA2FA92FE6
:1001C000982F8827820F911DA11DB11DBC01CD0163
:1001D00042E0660F771F881F991F4A95D1F708954F
:1001E0008F929F92AF92BF92CF92DF92EF92FF9247
:1001F0000E94CB004B015C0188EEC82E83E0D82E14
:10020000E12CF12C0E94CB00DC01CB01881999096B
:10021000AA09BB09883E9340A105B10558F021E029
:10022000C21AD108E108F10888EE880E83E0981E12
:10023000A11CB11CC114D104E104F10419F7FF9011
:10024000EF90DF90CF90BF90AF909F908F900895E8
:100250001F920F920FB60F9211242F933F938F93FB
:100260009F93AF93BF938091010190910201A09160
:100270000301B09104013091000123E0230F2D37D9
:1002800020F40196A11DB11D05C026E8230F02969A
:10029000A11DB11D209300018093010190930201E3
:1002A000A0930301B0930401809105019091060190
:1002B000A0910701B09108010196A11DB11D809385
:1002C000050190930601A0930701B0930801BF9127
:1002D000AF919F918F913F912F910F900FBE0F90F3
:1002E0001F901895789484B5826084BD84B5816030
:1002F00084BD85B5826085BD85B5816085BD8091F1
:100300006E00816080936E00109281008091810068
:100310008260809381008091810081608093810060
:10032000809180008160809380008091B100846022
:100330008093B1008091B00081608093B000809183
:100340007A00846080937A0080917A008260809342
:100350007A0080917A00816080937A0080917A009F
:10036000806880937A001092C100E7EAF0E024915F
:10037000E3E9F0E08491882399F090E0880F991FD9
:10038000FC01E859FF4FA591B491FC01E458FF4FDF
:10039000859194918FB7F894EC91E22BEC938FBFF9
:1003A000C6EAD0E0FE01249102E910E0F801849150
:1003B0008823C9F090E0880F991FFC01E859FF4F8E
:1003C000A591B49184589F4FFC01459154913FB73A
:1003D000F8949C91822F809598239C93FA019081A8
:1003E000892380833FBF9AEBE92E90E0F92E20E02D
:1003F000C22E20E0D22EF7018491FE01A490F801D4
:10040000B490BB2001F181110E947500EB2DF0E04A
:10041000EE0FFF1FCF018E589F4FFC01A591B491A5
:100420008C91A82281F081E00E949E000E94F00041
:1004300080E00E949E000E94F000C114D104D9F215
:100440000E940000D8CF80E00E949E00F6CFF89472
:02045000FFCFDC
:00000001FF
