:100000000C9479000C94A1000C94A1000C94A10014
:100010000C94A1000C94A1000C94A1000C94A100DC
:100020000C94A1000C94A1000C94A1000C94A100CC
:100030000C94A1000C94A1000C94A1000C94A100BC
:100040000C94A6030C94A1000C9474030C944E031E
:100050000C94A1000C94A1000C94A1000C94A1009C
:100060000C94A1000C94A100F606140714074E0688
:1000700058065A066C06760684068A069006A60678
:10008000B806140714071407CE061407140714073C
:1000900014071407DC0600000000240027002A00D3
:1000A00000000000250028002B00000000002300B5
:1000B00026002900040404040404040402020202C9
:1000C000020203030303030301020408102040801B
:1000D000010204081020010204081020000000089A
:1000E00000020100000304070000000000000000FF
:1000F000F00311241FBECFEFD8E0DEBFCDBF11E06B
:10010000A0E0B1E0E8E4FEE002C005900D92A23369
:10011000B107D9F722E0A2E3B1E001C01D92A734F4
:10012000B207E1F710E0C9E7D0E004C02197FE0173
:100130000E941707C837D107C9F70E947F040C94A3
:1001400022070C94000096E0899FD0011124A85248
:10015000BE4F90967C936E935F9791E091969C939F
:10016000919790914402E0914502F09146029923C3
:1001700039F0309751F0811108C08091F40104C02A
:10018000309719F05C968C9109940895CF92DF9284
:10019000EF92FF920F931F93CF93DF936C017A013D
:1001A0008B01C0E0D0E0CE15DF0589F0D8016D915C
:1001B0008D01D601ED91FC910190F081E02DC601F9
:1001C0000995892B11F47E0102C02196ECCFC7015D
:1001D000DF91CF911F910F91FF90EF90DF90CF9023
:1001E0000895FC01918D828D981761F0828DDF0159
:1001F000A80FB11D5D968C91928D9F5F9F73928F1A
:1002000090E008958FEF9FEF0895FC01918D828D0E
:10021000981731F0828DE80FF11D858D90E00895DB
:100220008FEF9FEF0895FC01918D228D892F90E033
:10023000805C9F4F821B91098F73992708958BE3F0
:1002400091E00E94130121E0892B09F420E0822F24
:100250000895FC01848DDF01A80FB11DA35ABF4F83
:100260002C91848D90E001968F739927848FA689B5
:10027000B7892C93A089B1898C9180648C93938DDC
:10028000848D981306C00288F389E02D80818F7DCC
:1002900080830895EF92FF920F931F93CF93DF9384
:1002A000EC0181E0888F9B8D8C8D981305C0E889C7
:1002B000F989808185FD24C0F62E0B8D10E00F5F3B
:1002C0001F4F0F731127E02E8C8DE8120CC00FB654
:1002D00007FCFACFE889F989808185FFF5CFCE0147
:1002E0000E942901F1CF8B8DFE01E80FF11DE35A29
:1002F000FF4FF0820B8FEA89FB898081806207C003
:10030000EE89FF896083E889F98980818064808330
:1003100081E090E0DF91CF911F910F91FF90EF90DE
:100320000895CF93DF93EC01888D8823C9F0EA8983
:10033000FB89808185FD05C0A889B9898C9186FDDE
:100340000FC00FB607FCF5CF808185FFF2CFA889DB
:10035000B9898C9185FFEDCFCE010E942901E7CFAD
:10036000DF91CF91089580E090E0892B29F00E94E1
:100370001F0181110C9400000895833081F028F44E
:10038000813099F08230A1F008958730A9F088304B
:10039000B9F08430D1F4809180008F7D03C08091CA
:1003A00080008F7780938000089584B58F7702C096
:1003B00084B58F7D84BD08958091B0008F7703C090
:1003C0008091B0008F7D8093B0000895CF93DF932C
:1003D000282F30E0F901E452FF4F8491F901E853EE
:1003E000FF4FD491F901EC54FF4FC491CC2391F00D
:1003F00081110E94BD01EC2FF0E0EE0FFF1FE655CA
:10040000FF4FA591B491EC91ED2381E090E021F4B0
:1004100080E002C080E090E0DF91CF910895862FC8
:100420000C94E6011F93CF93DF93282F30E0F9015E
:10043000E452FF4F8491F901E853FF4FD491F90141
:10044000EC54FF4FC491CC23C9F0162F81110E94A8
:10045000BD01EC2FF0E0EE0FFF1FE056FF4FA5911E
:10046000B4918FB7F894111105C09C91ED2FE095D0
:10047000E92302C0EC91ED2BEC938FBFDF91CF917C
:100480001F910895862F642F0C941202CF93DF934F
:1004900090E0FC01E853FF4F2491FC01EC54FF4F26
:1004A0008491882361F190E0880F991FFC01EA563E
:1004B000FF4FC591D491FC01E056FF4FA591B49137
:1004C000611109C09FB7F8948881209582238883A1
:1004D000EC912E230BC0623061F49FB7F894388101
:1004E000822F809583238883EC912E2B2C939FBFA2
:1004F00006C08FB7F894E8812E2B28838FBFDF9139
:10050000CF910895862F642F0C9446023FB7F8943C
:100510008091370190913801A0913901B0913A0151
:1005200026B5A89B05C02F3F19F00196A11DB11D4E
:100530003FBFBA2FA92F982F8827820F911DA11D89
:10054000B11DBC01CD0142E0660F771F881F991FC6
:100550004A95D1F708958F929F92AF92BF92CF9212
:10056000DF92EF92FF920E9486024B015C0184E6CB
:10057000C82ED12CE12CF12C0E948602DC01CB018B
:1005800088199909AA09BB09883E9340A105B105BC
:1005900058F021E0C21AD108E108F10888EE880E6F
:1005A00083E0981EA11CB11CC114D104E104F10424
:1005B00019F7FF90EF90DF90CF90BF90AF909F9092
:1005C0008F9008952FB7F8946091330170913401A2
:1005D00080913501909136012FBF08950F931F939D
:1005E000CF93DF93C82FD62F86E0C89FF001112448
:1005F000E852FE4F11A2878D90A181309105F1F054
:100600001CF4892B49F043C082309105A9F103976E
:10061000F1F560E070E034C06623C9F161E070E09C
:100620008C2F0E94A3000E94E2026093300270931C
:100630003102809332029093330229C00E94E20279
:100640000091300210913102209132023091330238
:10065000AB01BC01401B510B620B730B809142023A
:1006600090914302A0E0B0E084179507A607B70772
:1006700018F462E070E004C0D11109C063E070E0DA
:100680008C2FDF91CF911F910F910C94A300DF91DC
:10069000CF911F910F9108950E941D071F920F92F5
:1006A0000FB60F9211242F933F934F935F936F9345
:1006B0007F938F939F93AF93BF93EF93FF938BE3BE
:1006C00091E00E942901FF91EF91BF91AF919F911D
:1006D0008F917F916F915F914F913F912F910F90EB
:1006E0000FBE0F901F9018951F920F920FB60F928A
:1006F00011242F938F939F93EF93FF93E0914B01DE
:10070000F0914C018081E0915101F091520182FD04
:1007100012C09081809154018F5F8F732091550199
:10072000821751F0E0915401F0E0E55CFE4F958FA7
:100730008093540101C08081FF91EF919F918F912F
:100740002F910F900FBE0F901F9018951F920F9230
:100750000FB60F9211242F933F938F939F93AF93D4
:10076000BF938091330190913401A0913501B091F4
:1007700036013091320123E0230F2D3720F401960A
:10078000A11DB11D05C026E8230F0296A11DB11DB4
:10079000209332018093330190933401A09335016B
:1007A000B09336018091370190913801A0913901C1
:1007B000B0913A010196A11DB11D8093370190932C
:1007C0003801A0933901B0933A01BF91AF919F9145
:1007D0008F913F912F910F900FBE0F901F90189502
:1007E00010923E0110923D0188EE93E0A0E0B0E04F
:1007F00080933F0190934001A0934101B093420147
:1008000084E191E090933C0180933B0185EC90E082
:10081000909348018093470184EC90E090934A01C3
:100820008093490180EC90E090934C0180934B01C0
:1008300081EC90E090934E0180934D0182EC90E02A
:100840009093500180934F0186EC90E09093520179
:10085000809351011092540110925501109256014B
:10086000109257011092DA011092DE011092DD0110
:100870001092DF0184E291E09093D9018093D80136
:1008800080E090E0FC01E852FE4F148E10A2178E1B
:1008900011A206968C339105A9F78EE291E0909310
:1008A0003B0280933A028AE291E090933D0280936A
:1008B0003C0284E080933E0280933F0280E091E01E
:1008C00090933902809338028AE090E0909341023D
:1008D0008093400284EF91E0909343028093420220
:1008E0001092460210924502109234021092350284
:1008F00010923602109237021092440208957894B2
:1009000084B5826084BD84B5816084BD85B5826014
:1009100085BD85B5816085BD80916E0081608093C5
:100920006E0010928100809181008260809381002E
:10093000809181008160809381008091800081603E
:10094000809380008091B10084608093B100809199
:10095000B00081608093B00080917A0084608093C1
:100960007A0080917A00826080937A0080917A0088
:10097000816080937A0080917A00806880937A0009
:100980001092C10061E08DE00E94460261E08CE0BF
:100990000E94460261E08BE00E94460261E08AE02C
:1009A0000E94460261E089E00E94460261E088E020
:1009B0000E94460261E087E00E944602E0914B01FE
:1009C000F0914C0182E08083E0914701F091480171
:1009D0001082E0914901F0914A018FEC80831092DE
:1009E0005301E0914F01F091500186E08083E09146
:1009F0004D01F0914E01808180618083E0914D0135
:100A0000F0914E01808188608083E0914D01F091EA
:100A10004E01808180688083E0914D01F0914E010C
:100A200080818F7D8083412C512C32014394CC24D2
:100A3000CA94DC2C81E0809344020E94E20200917F
:100A40003402109135022091360230913702AB0109
:100A5000BC01401B510B620B730B809140029091C3
:100A60004102A0E0B0E084179507A607B70708F099
:100A700012C1C0E080913E02C81760F4E0913A02D2
:100A8000F0913B02EC0FF11D62E080810E94460272
:100A9000CF5FF0CF912C80913F02981608F05FC095
:100AA000092D10E0E0913C02F0913D02E00FF11FB2
:100AB00061E080810E944602E0913C02F0913D029B
:100AC000E00FF11F60E080810E941202D301C20199
:100AD000092C04C0880F991FAA1FBB1F0A94D2F7C4
:100AE0005C017C01E094F094812C80913E02881698
:100AF000F8F4C82DD0E0E0913A02F0913B02EC0FFF
:100B0000FD1F80810E94E6012496CC0FDD1FC85294
:100B1000DE4F892B29F4888199818A299B2904C079
:100B2000888199818E219F21998388838394DDCF49
:100B3000E0913C02F0913D02E00FF11F61E0808105
:100B40000E94120280913C0290913D02FC01E00F54
:100B5000F11F60E080810E94460293949CCFE4EFF5
:100B6000F1E083819481892B21F41082D282C182A9
:100B70001582369682E0E033F80799F710E006E038
:100B800080913E02181708F052C0F12CC12FD0E01E
:100B9000CC0FDD1FC052DE4F20913F02F21608F04D
:100BA00044C0688179810F2C02C0769567950A94BC
:100BB000E2F761707727129F900111242F0D311DEC
:100BC000E0913802F0913902E20FF31FA081E8EDC5
:100BD000F1E080E0458D568D4217530711F46170A6
:100BE0001AC08F5F36968A30A9F7672BE1F0E4EFE1
:100BF000F1E080E090E04081411110C0089FF001D9
:100C0000099FF00D1124E852FE4FA48F368F258FD7
:100C100010A2178E61E00E94EE0205C00196369682
:100C20008A30910541F7F394B7CF1F5FA9CF80E0D9
:100C300090E0C0E0FC01E852FE4F21A12111C1E08B
:100C400006968C339105B1F70E94E202609334025C
:100C5000709335028093360290933702CC23D9F0FB
:100C60008091F9018823B9F08091F7019091F80102
:100C7000019789F4E091F4018E2FEE0F990BAA0BE6
:100C8000BB0BFC01BD97E731F10508F0CDC0EC5C72
:100C9000FF4F0C94170710924402C6C061E08DE02C
:100CA0000E94120261E08CE00E94120261E08DC09D
:100CB00060E037C061E08DE00E94120261E08CE0EC
:100CC0000E94120260E08BE00E94120261E08AE062
:100CD0000E94120261E09BC061E08DE00E9412025E
:100CE00061E08CE00E94120261E061C060E08DE092
:100CF0000E94120261E08CE00E94120261E08BE02F
:100D00000E94120260E041C061E08DE00E94120288
:100D100060E033C061E08DE00E94120260E01BC021
:100D200061E08DE00E94120261E08CE00E941202FC
:100D300061E08BE00E94120260E08AE00E941202F1
:100D400060E089E00E94120260E04BC061E08DE04B
:100D50000E94120261E08CE00E94120261E08BE0CE
:100D60000E94120261E08AE00E94120261E011C05A
:100D700061E08DE00E94120261E08CE00E941202AC
:100D800061E08BE00E94120261E08AE00E941202A0
:100D900060E089E00E94120261E03DC060E08DE009
:100DA0000E94120260E08CE00E94120260E08BE080
:100DB0000E94120261E027C061E08DE00E941202F1
:100DC00060E08CE00E94120260E08BE00E94120260
:100DD00061E08AE00E94120261E089E00E94120252
:100DE00061E088E00E94120260E019C060E08DE0DE
:100DF0000E94120260E08CE00E94120260E08BE030
:100E00000E94120260E08AE00E94120260E089E023
:100E10000E94120260E088E00E94120261E087E016
:100E20000E9412020E94AB020E94B30103CEEE0F99
:100E3000FF1F0590F491E02D099481E090E0F89473
:080E40000C942207F894FFCF87
:100E48003738392F3435362A3132332D43303D2B5C
:100E5800000000004A01C6001301F10005019101DC
:100E680000000000820242020F020605040302137A
:020E7800121155
:00000001FF
