:100000000C946C000C9494000C9494000C94940048
:100010000C9494000C9494000C9494000C94940010
:100020000C9494000C9494000C9494000C94940000
:100030000C9494000C9494000C9494000C949400F0
:100040000C9401030C9494000C94CF020C94A9021C
:100050000C9494000C9494000C9494000C949400D0
:100060000C9494000C9494009204A804AA04BC0478
:10007000D204E004E604EC040605180500000000C4
:10008000240027002A0000000000250028002B0083
:1000900000000000230026002900040404040404D6
:1000A0000404020202020202030303030303010227
:1000B00004081020408001020408102001020408F6
:1000C00010200000000800020100000304070000E7
:1000D000000000000000390511241FBECFEFD8E05A
:1000E000DEBFCDBF11E0A0E0B1E0E6EEFAE002C075
:1000F00005900D92A031B107D9F721E0A0E1B1E060
:1001000001C01D92A73BB207E1F710E0CCE6D0E0BA
:1001100004C02197FE010E946605CB36D107C9F7BE
:100120000E944B030C9471050C940000CF92DF9257
:10013000EF92FF920F931F93CF93DF936C017A019D
:100140008B01C0E0D0E0CE15DF0589F0D8016D91BC
:100150008D01D601ED91FC910190F081E02DC60159
:100160000995892B11F47E0102C02196ECCFC701BD
:10017000DF91CF911F910F91FF90EF90DF90CF9083
:100180000895FC01918D828D981761F0828DDF01B9
:10019000A80FB11D5D968C91928D9F5F9F73928F7A
:1001A00090E008958FEF9FEF0895FC01918D828D6F
:1001B000981731F0828DE80FF11D858D90E008953C
:1001C0008FEF9FEF0895FC01918D228D892F90E094
:1001D000805C9F4F821B91098F739927089589E155
:1001E00091E00E94E30021E0892B09F420E0822FB6
:1001F0000895FC01848DDF01A80FB11DA35ABF4FE4
:100200002C91848D90E001968F739927848FA68915
:10021000B7892C93A089B1898C9180648C93938D3C
:10022000848D981306C00288F389E02D80818F7D2C
:1002300080830895EF92FF920F931F93CF93DF93E4
:10024000EC0181E0888F9B8D8C8D981305C0E88927
:10025000F989808185FD24C0F62E0B8D10E00F5F9B
:100260001F4F0F731127E02E8C8DE8120CC00FB6B4
:1002700007FCFACFE889F989808185FFF5CFCE01A7
:100280000E94F900F1CF8B8DFE01E80FF11DE35ABA
:10029000FF4FF0820B8FEA89FB898081806207C063
:1002A000EE89FF896083E889F98980818064808391
:1002B00081E090E0DF91CF911F910F91FF90EF903F
:1002C0000895CF93DF93EC01888D8823C9F0EA89E4
:1002D000FB89808185FD05C0A889B9898C9186FD3F
:1002E0000FC00FB607FCF5CF808185FFF2CFA8893C
:1002F000B9898C9185FFEDCFCE010E94F900E7CF3F
:10030000DF91CF91089580E090E0892B29F00E9441
:10031000EF0081110C9400000895833081F028F4DF
:10032000813099F08230A1F008958730A9F08830AB
:10033000B9F08430D1F4809180008F7D03C080912A
:1003400080008F7780938000089584B58F7702C0F6
:1003500084B58F7D84BD08958091B0008F7703C0F0
:100360008091B0008F7D8093B0000895CF93DF938C
:10037000282F30E0F901EE53FF4F8491F901E25547
:10038000FF4FD491F901E656FF4FC491CC2391F071
:1003900081110E948D01EC2FF0E0EE0FFF1FE0575E
:1003A000FF4FA591B491EC91ED2381E090E021F411
:1003B00080E002C080E090E0DF91CF9108951F932C
:1003C000CF93DF93282F30E0F901EE53FF4F849154
:1003D000F901E255FF4FD491F901E656FF4FC49160
:1003E000CC23C9F0162F81110E948D01EC2FF0E073
:1003F000EE0FFF1FEA57FF4FA591B4918FB7F89406
:10040000111105C09C91ED2FE095E92302C0EC91FC
:10041000ED2BEC938FBFDF91CF911F910895CF9378
:10042000DF9390E0FC01E255FF4F2491FC01E6567A
:10043000FF4F8491882361F190E0880F991FFC01A0
:10044000E458FF4FC591D491FC01EA57FF4FA591A5
:10045000B491611109C09FB7F894888120958223D7
:100460008883EC912E230BC0623061F49FB7F8941F
:100470003881822F809583238883EC912E2B2C93B7
:100480009FBF06C08FB7F894E8812E2B28838FBFBB
:10049000DF91CF9108953FB7F89480911501909125
:1004A0001601A0911701B091180126B5A89B05C0AF
:1004B0002F3F19F00196A11DB11D3FBFBA2FA92FE3
:1004C000982F8827820F911DA11DB11DBC01CD0160
:1004D00042E0660F771F881F991F4A95D1F708954C
:1004E0008F929F92AF92BF92CF92DF92EF92FF9244
:1004F0000E944B024B015C0184E6C82ED12CE12CFA
:10050000F12C0E944B02DC01CB0188199909AA0940
:10051000BB09883E9340A105B10558F021E0C21AFD
:10052000D108E108F10888EE880E83E0981EA11C2E
:10053000B11CC114D104E104F10419F7FF90EF904C
:10054000DF90CF90BF90AF909F908F9008950E94C2
:100550006C051F920F920FB60F9211242F933F93A9
:100560004F935F936F937F938F939F93AF93BF93BB
:10057000EF93FF9389E191E00E94F900FF91EF91E1
:10058000BF91AF919F918F917F916F915F914F91AB
:100590003F912F910F900FBE0F901F9018951F92B3
:1005A0000F920FB60F9211242F938F939F93EF9377
:1005B000FF93E0912901F0912A018081E0912F01C0
:1005C000F091300182FD12C09081809132018F5FE5
:1005D0008F7320913301821751F0E0913201F0E0E6
:1005E000E75EFE4F958F8093320101C08081FF91BD
:1005F000EF919F918F912F910F900FBE0F901F90B1
:1006000018951F920F920FB60F9211242F933F93BC
:100610008F939F93AF93BF9380911101909112019B
:10062000A0911301B09114013091100123E0230F28
:100630002D3720F40196A11DB11D05C026E8230F1A
:100640000296A11DB11D209310018093110190937A
:100650001201A0931301B0931401809115019091A0
:100660001601A0911701B09118010196A11DB11DAD
:100670008093150190931601A0931701B093180170
:10068000BF91AF919F918F913F912F910F900FBE8E
:100690000F901F901895789484B5826084BD84B5BE
:1006A000816084BD85B5826085BD85B5816085BD6D
:1006B00080916E00816080936E0010928100809125
:1006C00081008260809381008091810081608093AD
:1006D0008100809180008160809380008091B100D2
:1006E00084608093B1008091B00081608093B000FD
:1006F00080917A00846080937A0080917A00826091
:1007000080937A0080917A00816080937A00809152
:100710007A00806880937A001092C10061E083E0E3
:100720000E940F0261E082E00E940F0261E083E11B
:100730000E940F0261E082E10E940F0262E086E007
:100740000E940F0262E085E00E940F0262E084E0F6
:100750000E940F0261E08DE00E940F0261E08CE0D8
:100760000E940F0261E08BE00E940F0261E08AE0CC
:100770000E940F0261E089E00E940F0261E088E0C0
:100780000E940F0261E087E00E940F02E0912901C0
:10079000F0912A0182E08083E0912501F091260109
:1007A0001082E0912701F09128018FEC8083109254
:1007B0003101E0912D01F0912E0186E08083E091DE
:1007C0002B01F0912C01808180618083E0912B01CD
:1007D000F0912C01808188608083E0912B01F09161
:1007E0002C01808180688083E0912B01F0912C01A5
:1007F00080818F7D8083D1E312E303E384E3F82ECD
:1008000095E3E92E26E3D22E37E3C32E48E3B42E38
:1008100059E3A52EC3E260E3962E60E083E00E94D8
:10082000DF0186E00E94B601892B11F4D093B60156
:1008300085E00E94B601892B11F41093B60184E083
:100840000E94B601892B11F40093B60161E083E0A8
:100850000E94DF0160E082E00E94DF0186E00E94EA
:10086000B601892B11F4F092B60185E00E94B60121
:10087000892B11F4E092B60184E00E94B601892B25
:1008800011F4D092B60161E082E00E94DF0160E0E5
:1008900083E10E94DF0186E00E94B601892B11F4FA
:1008A000C092B60185E00E94B601892B11F4B09286
:1008B000B60184E00E94B601892B11F4A092B60122
:1008C00061E083E10E94DF0160E082E10E94DF01DC
:1008D00086E00E94B601892B11F4C093B60185E031
:1008E0000E94B601892B11F49092B60184E00E9417
:1008F000B601892B11F4C093B60161E082E10E9438
:10090000DF01E091B6018E2FEE0F990BAA0BBB0B06
:10091000FC01F097EA30F10508F0A8C0EC5CFF4F4D
:100920000C94660560E08DE00E94DF0160E08CE0E1
:100930000E94DF0160E08BE00E94DF0160E08AE05E
:100940000E94DF0160E089E00E94DF0160E059C0A1
:1009500061E043C060E08DE00E94DF0160E08CE078
:100960000E94DF0161E08BE00E94DF0160E08AE02D
:100970000E94DF0160E011C060E08DE00E94DF01B5
:1009800060E08CE00E94DF0160E08BE00E94DF010C
:1009900060E08AE00E94DF0161E089E00E94DF01FF
:1009A00061E05BC061E08DE00E94DF0160E08CE00F
:1009B0000E94DF0160E08BE00E94DF0161E045C042
:1009C00060E08DE00E94DF0161E037C060E08DE013
:1009D0000E94DF0161E01FC060E08DE00E94DF0146
:1009E00060E08CE00E94DF0160E08BE00E94DF01AC
:1009F00061E08AE00E94DF0161E089E00E94DF019E
:100A000061E088E00E94DF0161E02BC060E08DE0E2
:100A10000E94DF0160E08CE00E94DF0160E08BE07B
:100A20000E94DF0160E08AE00E94DF0160E011C007
:100A300060E08DE00E94DF0160E08CE00E94DF0159
:100A400060E08BE00E94DF0160E08AE00E94DF014D
:100A500061E089E00E94DF0160E088E00E94DF0140
:100A600060E087E00E94DF010E9470020E94830123
:100A7000D4CEE9E1F1E01382128288EE93E0A0E0A7
:100A8000B0E084839583A683B78384E091E091836B
:100A9000808385EC90E09587848784EC90E097874D
:100AA000868780EC90E0918B808B81EC90E0938B3B
:100AB000828B82EC90E0958B848B86EC90E0978B18
:100AC000868B118E128E138E148E0895EE0FFF1FDB
:100AD0000590F491E02D099481E090E0F8940C9455
:060AE0007105F894FFCF40
:100AE600000000001A019600E300C100D500610174
:00000001FF
