:100000000C9462000C948A000C948A000C948A0070
:100010000C948A000C948A000C948A000C948A0038
:100020000C948A000C948A000C948A000C948A0028
:100030000C948A000C948A000C948A000C948A0018
:100040000C9479040C948A000C9447040C942104B9
:100050000C948A000C948A000C948A000C948A00F8
:100060000C948A000C948A000000000024002700F1
:100070002A0000000000250028002B0000000000DE
:1000800023002600290004040404040404040202DA
:100090000202020203030303030301020408102007
:1000A0004080010204081020010204081020000012
:1000B0000008000201000003040700000000000027
:1000C0000000C30411241FBECFEFD8E0DEBFCDBFB8
:1000D00011E0A0E0B1E0ECE8FEE002C005900D9276
:1000E000A633B107D9F722E0A6E3B1E001C01D9223
:1000F000A336B207E1F710E0C2E6D0E004C02197D2
:10010000FE010E943907C136D107C9F70E94810557
:100110000C9444070C94000096E0899FD0011124B0
:10012000A452BE4F90967C936E935F9791E0919608
:100130009C93919790914802E0914902F0914A0274
:10014000992339F0309751F0811108C08091F8015E
:1001500004C0309719F05C968C9109940895CF9261
:10016000DF92EF92FF920F931F93CF93DF936C0177
:100170007A018B01C0E0D0E0CE15DF0589F0D8010F
:100180006D918D01D601ED91FC910190F081E02DF2
:10019000C6010995892B11F47E0102C02196ECCF8E
:1001A000C701DF91CF911F910F91FF90EF90DF90EA
:1001B000CF900895FC01918D828D981761F0828D0A
:1001C000DF01A80FB11D5D968C91928D9F5F9F738B
:1001D000928F90E008958FEF9FEF0895FC01918D2D
:1001E000828D981731F0828DE80FF11D858D90E09A
:1001F00008958FEF9FEF0895FC01918D228D892F37
:1002000090E0805C9F4F821B91098F73992708951E
:100210008FE391E00E94FC0021E0892B09F420E0AB
:10022000822F0895FC01848DDF01A80FB11DA35A10
:10023000BF4F2C91848D90E001968F739927848F06
:10024000A689B7892C93A089B1898C9180648C93FD
:10025000938D848D981306C00288F389E02D8081E8
:100260008F7D80830895EF92FF920F931F93CF931A
:10027000DF93EC0181E0888F9B8D8C8D981305C0F6
:10028000E889F989808185FD24C0F62E0B8D10E068
:100290000F5F1F4F0F731127E02E8C8DE8120CC0DB
:1002A0000FB607FCFACFE889F989808185FFF5CF81
:1002B000CE010E941201F1CF8B8DFE01E80FF11DDE
:1002C000E35AFF4FF0820B8FEA89FB8980818062BD
:1002D00007C0EE89FF896083E889F989808180649D
:1002E000808381E090E0DF91CF911F910F91FF908B
:1002F000EF900895CF93DF93EC01888D8823C9F0A8
:10030000EA89FB89808185FD05C0A889B9898C911E
:1003100086FD0FC00FB607FCF5CF808185FFF2CFB9
:10032000A889B9898C9185FFEDCFCE010E94120179
:10033000E7CFDF91CF91089580E090E0892B29F0FD
:100340000E94080181110C9400000895833081F00F
:1003500028F4813099F08230A1F008958730A9F017
:100360008830B9F08430D1F4809180008F7D03C053
:10037000809180008F7780938000089584B58F7777
:1003800002C084B58F7D84BD08958091B0008F77C1
:1003900003C08091B0008F7D8093B0000895CF930B
:1003A000DF93282F30E0F901E255FF4F8491F901E6
:1003B000E656FF4FD491F901EA57FF4FC491CC2381
:1003C00091F081110E94A601EC2FF0E0EE0FFF1FCB
:1003D000E458FF4FA591B491EC91ED2381E090E0BA
:1003E00021F480E002C080E090E0DF91CF91089599
:1003F000862F0C94CF011F93CF93DF93282F30E0EB
:10040000F901E255FF4F8491F901E656FF4FD4916F
:10041000F901EA57FF4FC491CC23C9F0162F81117F
:100420000E94A601EC2FF0E0EE0FFF1FEE58FF4FE9
:10043000A591B4918FB7F894111105C09C91ED2F3F
:10044000E095E92302C0EC91ED2BEC938FBFDF9197
:10045000CF911F910895862F642F0C94FB01CF93A9
:10046000DF9390E0FC01E656FF4F2491FC01EA5730
:10047000FF4F8491882361F190E0880F991FFC0160
:10048000E859FF4FC591D491FC01EE58FF4FA5915B
:10049000B491611109C09FB7F89488812095822397
:1004A0008883EC912E230BC0623061F49FB7F894DF
:1004B0003881822F809583238883EC912E2B2C9377
:1004C0009FBF06C08FB7F894E8812E2B28838FBF7B
:1004D000DF91CF910895862F642F0C942F022FB7B0
:1004E000F89460913B0170913C0180913D019091A5
:1004F0003E012FBF08950F931F93CF93DF93C82F13
:10050000D62F86E0C89FF0011124E452FE4F11A2BD
:10051000878D90A181309105F1F01CF4892B49F071
:1005200043C082309105A9F10397F1F560E070E0D6
:1005300034C06623C9F161E070E08C2F0E948C000A
:100540000E946F02609334027093350280933602EA
:100550009093370229C00E946F02009134021091DB
:1005600035022091360230913702AB01BC01401BAD
:10057000510B620B730B8091460290914702A0E0F1
:10058000B0E084179507A607B70718F462E070E09B
:1005900004C0D11109C063E070E08C2FDF91CF91CE
:1005A0001F910F910C948C00DF91CF911F910F91AF
:1005B0000895CF93DF93EC0160E08E810E94FB01F0
:1005C00061E08E810E94FB0160E08E810E94FB0150
:1005D0008BE891E00197F1F7DF91CF910895CF92E9
:1005E000DF92EF92FF920F931F93CF93DF937C01E3
:1005F0006C0187E0C80ED11CC0E0D0E0062F10E0EF
:10060000B8010C2E02C0759567950A94E2F76170E7
:10061000F60181916F010E94FB012196C430D10542
:1006200079F7C701DF91CF911F910F91FF90EF9064
:10063000DF90CF900C94D902CF92DF92EF92FF928D
:100640000F931F93CF93DF93EC01F62E642F8C81D1
:100650000E94FB018D818F3F19F060E00E94FB0139
:100660008F850F2D10E084FF25C06E0187E0C80E36
:10067000D11CE12CF12CB8010E2C02C075956795A8
:100680000A94E2F76170F60181916F010E94FB010B
:10069000FFEFEF1AFF0A88E0E816F10461F7CE01D8
:1006A000DF91CF911F910F91FF90EF90DF90CF904E
:1006B0000C94D902B80184E0759567958A95E1F7A5
:1006C000CE010E94EF026F2DCE01DF91CF911F91DD
:1006D0000F91FF90EF90DF90CF900C94EF02EF928C
:1006E000FF920F931F93CF93DF93EC01623018F0CA
:1006F0008F8588608F876B8B1C8A80E48D8B80E16F
:100700008E8B80E58F8B61E08C810E942F028D8122
:100710008F3F19F061E00E942F0261E08E810E94FC
:100720002F027E0187E0E80EF11C00E010E08F85CB
:1007300084FD03C084E090E002C088E090E00817E8
:1007400019074CF461E0F70181917F010E942F02AB
:100750000F5F1F4FECCF8BE39DE00197F1F760E057
:100760008C810E94FB0160E08E810E94FB018D81E3
:100770008F3F19F060E00E94FB016F8564FD1DC092
:1007800063E0CE010E94EF020BE416E4C80101977A
:10079000F1F763E0CE010E94EF02C8010197F1F783
:1007A00063E0CE010E94EF0283E592E00197F1F74A
:1007B00062E0CE010E94EF0219C0606240E0CE010B
:1007C0000E941C038BE496E40197F1F76F85606249
:1007D00040E0CE010E941C0383E592E00197F1F70F
:1007E0006F85606240E0CE010E941C036F856062ED
:1007F00040E0CE010E941C0384E0888B40E06CE066
:10080000CE010E941C0340E061E0CE010E941C0367
:100810008BE39FE10197F1F782E0898B40E066E08E
:10082000CE01DF91CF911F910F91FF90EF900C942B
:100830001C0341E00E941C0381E090E008950E94A7
:100840003F071F920F920FB60F9211242F933F93E1
:100850004F935F936F937F938F939F93AF93BF93C8
:10086000EF93FF938FE391E00E941201FF91EF91CC
:10087000BF91AF919F918F917F916F915F914F91B8
:100880003F912F910F900FBE0F901F9018951F92C0
:100890000F920FB60F9211242F938F939F93EF9384
:1008A000FF93E0914F01F09150018081E09155015B
:1008B000F091560182FD12C09081809158018F5FA6
:1008C0008F7320915901821751F0E0915801F0E0A7
:1008D000E15CFE4F958F8093580101C08081FF91AC
:1008E000EF919F918F912F910F900FBE0F901F90BE
:1008F00018951F920F920FB60F9211242F933F93CA
:100900008F939F93AF93BF9380913B0190913C0154
:10091000A0913D01B0913E0130913A0123E0230FB7
:100920002D3720F40196A11DB11D05C026E8230F27
:100930000296A11DB11D20933A0180933B01909333
:100940003C01A0933D01B0933E018091360190910E
:100950003701A0913801B09139010196A11DB11D57
:100960008093360190933701A0933801B0933901F9
:10097000BF91AF919F918F913F912F910F900FBE9B
:100980000F901F901895109242011092410188EE2D
:1009900093E0A0E0B0E08093430190934401A093E2
:1009A0004501B093460187E191E090934001809327
:1009B0003F0185EC90E090934C0180934B0184ECD7
:1009C00090E090934E0180934D0180EC90E09093E5
:1009D000500180934F0181EC90E0909352018093FD
:1009E000510182EC90E0909354018093530186EC86
:1009F00090E0909356018093550110925801109207
:100A0000590110925A0110925B0110924E021092FD
:100A10004D0281E391E090934C0280934B028CE075
:100A200080934F028FEF809350028BE080935102AE
:100A300085E08093520284E08093530283E08093A8
:100A4000540282E08093550210925602109257028F
:100A5000109258021092590210925A0261E08BE4EF
:100A600092E00E946F031092DE011092E201109258
:100A7000E1011092E30187E291E09093DD01809320
:100A8000DC0180E090E0FC01E452FE4F148E10A2E5
:100A9000178E11A206968C339105A9F783E091E099
:100AA00090933F0280933E0280E091E09093410258
:100AB0008093400284E08093420283E0809343026B
:100AC00087E091E090933D0280933C028AE090E0C1
:100AD000909345028093440284EF91E09093470203
:100AE0008093460210924A021092490210923802F4
:100AF0001092390210923A0210923B021092480270
:100B00000895789484B5826084BD84B5816084BD85
:100B100085B5826085BD85B5816085BD80916E009B
:100B2000816080936E0010928100809181008260CC
:100B30008093810080918100816080938100809109
:100B400080008160809380008091B10084608093F8
:100B5000B1008091B00081608093B00080917A00F4
:100B6000846080937A0080917A00826080937A001A
:100B700080917A00816080937A0080917A00806809
:100B800080937A001092C10062E08BE492E00E94B0
:100B90006F03E0914F01F091500182E08083E0917A
:100BA0004B01F0914C011082E0914D01F0914E010A
:100BB0008FEC808310925701E0915301F091540122
:100BC00086E08083E0915101F09152018081806143
:100BD0008083E0915101F09152018081886080838F
:100BE000E0915101F0915201808180688083E09111
:100BF0005101F091520180818F7D8083412C512CD5
:100C000032014394CC24CA94DC2C81E080934802C6
:100C10000E946F02009138021091390220913A022D
:100C200030913B02AB01BC01401B510B620B730BBB
:100C30008091440290914502A0E0B0E084179507AE
:100C4000A607B70708F010C1C0E080914202C8179C
:100C500060F4E0913E02F0913F02EC0FF11D62E082
:100C600080810E942F02CF5FF0CF912C80914302B0
:100C7000981608F05FC0092D10E0E0914002F09155
:100C80004102E00FF11F61E080810E942F02E0919C
:100C90004002F0914102E00FF11F60E080810E946C
:100CA000FB01D301C201092C04C0880F991FAA1FA0
:100CB000BB1F0A94D2F75C017C01E094F094812C74
:100CC000809142028816F8F4C82DD0E0E0913E02EF
:100CD000F0913F02EC0FFD1F80810E94CF0124960E
:100CE000CC0FDD1FC452DE4F892B29F488819981F6
:100CF0008A299B2904C0888199818E219F2199830B
:100D000088838394DDCFE0914002F0914102E00FAF
:100D1000F11F61E080810E94FB018091400290916F
:100D20004102FC01E00FF11F60E080810E942F0270
:100D300093949CCFE8EFF1E083819481892B21F497
:100D40001082D282C1821582369682E0E433F8079F
:100D500099F710E006E080914202181708F052C09F
:100D6000F12CC12FD0E0CC0FDD1FCC51DE4F2091F4
:100D70004302F21608F044C0688179810F2C02C04A
:100D8000769567950A94E2F761707727129F900134
:100D900011242F0D311DE0913C02F0913D02E20F34
:100DA000F31FA081ECEDF1E080E0458D568D4217F8
:100DB000530711F461701AC08F5F36968A30A9F715
:100DC000672BE1F0E8EFF1E080E090E04081411135
:100DD00010C0089FF001099FF00D1124E452FE4F4E
:100DE000A48F368F258F10A2178E61E00E947B02A0
:100DF00005C0019636968A30910541F7F394B7CF36
:100E00001F5FA9CF80E090E0C0E0FC01E452FE4FFC
:100E100021A12111C1E006968C339105B1F70E9402
:100E20006F02609338027093390280933A02909374
:100E30003B02CC23C9F08091FD018823A9F0809169
:100E4000FB019091FC01019779F46091F801662310
:100E500069F0E0914B02F0914C020190F081E02D9D
:100E60008BE492E0099502C0109248020E949C0116
:100E7000CCCEEE0FFF1F0590F491E02D099481E098
:0C0E800090E0F8940C944407F894FFCF25
:100E8C000D0A090807061331323334353637383931
:100E9C002A302A000000003301AF00FC00DA00EE1B
:100EAC00007A01000000006B022B02F80100000028
:060EBC00001904AF000064
:00000001FF
