:100000000C9462000C948A000C948A000C948A0070
:100010000C948A000C948A000C948A000C948A0038
:100020000C948A000C948A000C948A000C948A0028
:100030000C948A000C948A000C948A000C948A0018
:100040000C9418040C948A000C94E6030C94C003DE
:100050000C948A000C948A000C948A000C948A00F8
:100060000C948A000C948A000000000024002700F1
:100070002A0000000000250028002B0000000000DE
:1000800023002600290004040404040404040202DA
:100090000202020203030303030301020408102007
:1000A0004080010204081020010204081020000012
:1000B0000008000201000003040700000000000027
:1000C0000000620411241FBECFEFD8E0DEBFCDBF19
:1000D00011E0A0E0B1E0E0E1FCE002C005900D928B
:1000E000A033B107D9F721E0A0E3B1E001C01D9230
:1000F000AE3EB207E1F710E0C2E6D0E004C02197BF
:10010000FE010E94FB05C136D107C9F70E94AD046C
:100110000C9406060C940000CF92DF92EF92FF92AF
:100120000F931F93CF93DF936C017A018B01C0E093
:10013000D0E0CE15DF0589F0D8016D918D01D60193
:10014000ED91FC910190F081E02DC6010995892B7C
:1001500011F47E0102C02196ECCFC701DF91CF914F
:100160001F910F91FF90EF90DF90CF900895FC01C9
:10017000918D828D981761F0828DDF01A80FB11DDE
:100180005D968C91928D9F5F9F73928F90E0089502
:100190008FEF9FEF0895FC01918D828D981731F0BC
:1001A000828DE80FF11D858D90E008958FEF9FEF10
:1001B0000895FC01918D228D892F90E0805C9F4FE6
:1001C000821B91098F739927089589E391E00E941A
:1001D000D90021E0892B09F420E0822F0895FC0149
:1001E000848DDF01A80FB11DA35ABF4F2C91848DC0
:1001F00090E001968F739927848FA689B7892C93F5
:10020000A089B1898C9180648C93938D848D98138F
:1002100006C00288F389E02D80818F7D8083089558
:10022000EF92FF920F931F93CF93DF93EC0181E046
:10023000888F9B8D8C8D981305C0E889F989808102
:1002400085FD24C0F62E0B8D10E00F5F1F4F0F733E
:100250001127E02E8C8DE8120CC00FB607FCFACFE8
:10026000E889F989808185FFF5CFCE010E94EF00F2
:10027000F1CF8B8DFE01E80FF11DE35AFF4FF082A5
:100280000B8FEA89FB898081806207C0EE89FF8934
:100290006083E889F98980818064808381E090E0CF
:1002A000DF91CF911F910F91FF90EF900895CF9321
:1002B000DF93EC01888D8823C9F0EA89FB8980816E
:1002C00085FD05C0A889B9898C9186FD0FC00FB640
:1002D00007FCF5CF808185FFF2CFA889B9898C9181
:1002E00085FFEDCFCE010E94EF00E7CFDF91CF91E8
:1002F000089580E090E0892B29F00E94E5008111AB
:100300000C9400000895833081F028F4813099F036
:100310008230A1F008958730A9F08830B9F0843098
:10032000D1F4809180008F7D03C0809180008F7711
:1003300080938000089584B58F7702C084B58F7D47
:1003400084BD08958091B0008F7703C08091B00084
:100350008F7D8093B0000895CF93DF93282F30E0F6
:10036000F901E255FF4F8491F901E656FF4FD49110
:10037000F901EA57FF4FC491CC2391F081110E94FB
:100380008301EC2FF0E0EE0FFF1FE458FF4FA59123
:10039000B491EC91ED2381E090E021F480E002C083
:1003A00080E090E0DF91CF9108951F93CF93DF938A
:1003B000282F30E0F901E255FF4F8491F901E6560C
:1003C000FF4FD491F901EA57FF4FC491CC23C9F0F4
:1003D000162F81110E948301EC2FF0E0EE0FFF1F1A
:1003E000EE58FF4FA591B4918FB7F894111105C045
:1003F0009C91ED2FE095E92302C0EC91ED2BEC935D
:100400008FBFDF91CF911F910895CF93DF9390E03D
:10041000FC01E656FF4F2491FC01EA57FF4F8491FF
:10042000882361F190E0880F991FFC01E859FF4F84
:10043000C591D491FC01EE58FF4FA591B491611183
:1004400009C09FB7F8948881209582238883EC9116
:100450002E230BC0623061F49FB7F8943881822F4D
:10046000809583238883EC912E2B2C939FBF06C00D
:100470008FB7F894E8812E2B28838FBFDF91CF911F
:1004800008953FB7F8948091350190913601A0917D
:100490003701B091380126B5A89B05C02F3F19F050
:1004A0000196A11DB11D3FBFBA2FA92F982F8827F4
:1004B000820F911DA11DB11DBC01CD0142E0660F4F
:1004C000771F881F991F4A95D1F70895CF93DF931F
:1004D000EC0160E08E810E94D50161E08E810E9476
:1004E000D50160E08E810E94D5018BE891E00197F3
:1004F000F1F7DF91CF910895CF92DF92EF92FF92C3
:100500000F931F93CF93DF937C016C0187E0C80E9C
:10051000D11CC0E0D0E0062F10E0B8010C2E02C0C4
:10052000759567950A94E2F76170F60181916F0104
:100530000E94D5012196C430D10579F7C701DF911A
:10054000CF911F910F91FF90EF90DF90CF900C947F
:100550006602CF92DF92EF92FF920F931F93CF9399
:10056000DF93EC01F62E642F8C810E94D5018D81E2
:100570008F3F19F060E00E94D5018F850F2D10E0AC
:1005800084FF25C06E0187E0C80ED11CE12CF12C40
:10059000B8010E2C02C0759567950A94E2F7617058
:1005A000F60181916F010E94D501FFEFEF1AFF0A5A
:1005B00088E0E816F10461F7CE01DF91CF911F9139
:1005C0000F91FF90EF90DF90CF900C946602B801EE
:1005D00084E0759567958A95E1F7CE010E947C02CB
:1005E0006F2DCE01DF91CF911F910F91FF90EF9072
:1005F000DF90CF900C947C02EF92FF920F931F93A9
:10060000CF93DF93EC01623018F08F8588608F877D
:100610006B8B1C8A80E48D8B80E18E8B80E58F8BC9
:1006200061E08C810E9405028D818F3F19F061E0AD
:100630000E94050261E08E810E9405027E0187E032
:10064000E80EF11C00E010E08F8584FD03C084E01B
:1006500090E002C088E090E0081719074CF461E0D0
:10066000F70181917F010E9405020F5F1F4FECCFC0
:100670008BE39DE00197F1F760E08C810E94D5014A
:1006800060E08E810E94D5018D818F3F19F060E07E
:100690000E94D5016F8564FD1DC063E0CE010E94FC
:1006A0007C020BE416E4C8010197F1F763E0CE0188
:1006B0000E947C02C8010197F1F763E0CE010E941D
:1006C0007C0283E592E00197F1F762E0CE010E949F
:1006D0007C0219C0606240E0CE010E94A9028BE456
:1006E00096E40197F1F76F85606240E0CE010E94C9
:1006F000A90283E592E00197F1F76F85606240E01F
:10070000CE010E94A9026F85606240E0CE010E9486
:10071000A90284E0888B40E06CE0CE010E94A9022F
:1007200040E061E0CE010E94A9028BE39FE10197C6
:10073000F1F782E0898B40E066E0CE01DF91CF9156
:100740001F910F91FF90EF900C94A90241E00E943D
:10075000A90281E090E00895009769F0FC01019002
:100760000020E9F73197AF01481B590BBC0186ED1A
:1007700091E00C948C0080E090E008950E940106C6
:100780001F920F920FB60F9211242F933F934F9306
:100790005F936F937F938F939F93AF93BF93EF93E9
:1007A000FF9389E391E00E94EF00FF91EF91BF91E9
:1007B000AF919F918F917F916F915F914F913F91F9
:1007C0002F910F900FBE0F901F9018951F920F92B0
:1007D0000FB60F9211242F938F939F93EF93FF9354
:1007E000E0914901F0914A018081E0914F01F0913F
:1007F000500182FD12C09081809152018F5F8F73F2
:1008000020915301821751F0E0915201F0E0E75C32
:10081000FE4F958F8093520101C08081FF91EF912F
:100820009F918F912F910F900FBE0F901F90189551
:100830001F920F920FB60F9211242F933F938F9315
:100840009F93AF93BF938091310190913201A0911A
:100850003301B09134013091300123E0230F2D3763
:1008600020F40196A11DB11D05C026E8230F0296B4
:10087000A11DB11D2093300180933101909332016D
:10088000A0933301B09334018091350190913601EA
:10089000A0913701B09138010196A11DB11D80933F
:1008A000350190933601A0933701B0933801BF9181
:1008B000AF919F918F913F912F910F900FBE0F900D
:1008C0001F901895E9E3F1E01382128288EE93E01D
:1008D000A0E0B0E084839583A683B78384E091E0B1
:1008E0009183808385EC90E09587848784EC90E009
:1008F0009787868780EC90E0918B808B81EC90E0ED
:10090000938B828B82EC90E0958B848B86EC90E0CD
:10091000978B868B118E128E138E148EE6EDF1E07E
:100920001382128284E191E0918380838DE084833D
:100930008FEF85838CE086838BE087838AE08087D6
:1009400089E0818788E0828713861486158616865B
:10095000178661E0CF010C94FC02789484B5826024
:1009600084BD84B5816084BD85B5826085BD85B553
:10097000816085BD80916E00816080936E001092D1
:10098000810080918100826080938100809181004C
:1009900081608093810080918000816080938000DD
:1009A0008091B10084608093B1008091B00081603B
:1009B0008093B00080917A00846080937A00809167
:1009C0007A00826080937A0080917A0081608093BF
:1009D0007A0080917A00806880937A001092C1003A
:1009E00061E084E00E94050261E083E00E9405026C
:1009F00061E082E00E94050261E083E10E9405025D
:100A000062E087E00E94050262E086E00E94050243
:100A100062E085E00E94050262E086ED91E00E94BE
:100A2000FC02E0914901F0914A0182E08083E0916B
:100A30004501F09146011082E0914701F091480193
:100A40008FEC808310925101E0914D01F0914E01A5
:100A500086E08083E0914B01F0914C0180818061C0
:100A60008083E0914B01F0914C018081886080830C
:100A7000E0914B01F0914C01808180688083E0918E
:100A80004B01F0914C0180818F7D808360E084E098
:100A90000E94D50187E00E94AC01892B21F488E1F6
:100AA00091E00E94AC0386E00E94AC01892B21F406
:100AB0008AE191E00E94AC0385E00E94AC01892BA1
:100AC00021F48CE191E00E94AC0361E084E00E949B
:100AD000D50160E083E00E94D50187E00E94AC016F
:100AE000892B21F48EE191E00E94AC0386E00E9404
:100AF000AC01892B21F480E291E00E94AC0385E0F7
:100B00000E94AC01892B21F482E291E00E94AC03A7
:100B100061E083E00E94D50160E082E00E94D5019F
:100B200087E00E94AC01892B21F484E291E00E94CD
:100B3000AC0386E00E94AC01892B21F486E291E0AF
:100B40000E94AC0385E00E94AC01892B21F488E26D
:100B500091E00E94AC0361E082E00E94D50160E078
:100B600083E10E94D50187E00E94AC01892B21F42A
:100B70008AE291E00E94AC0386E00E94AC01892BDE
:100B800021F48CE291E00E94AC0385E00E94AC016C
:100B9000892B21F48EE291E00E94AC0361E083E1B5
:100BA0000E94D5010E9441024B015C0184E1C82EE4
:100BB000D12CE12CF12C0E944102DC01CB018819DF
:100BC0009909AA09BB09883E9340A105B10558F0CF
:100BD00021E0C21AD108E108F10888EE880E83E00E
:100BE000981EA11CB11CC114D104E104F10419F731
:100BF0000E9479014BCFEE0FFF1F0590F491E02D7D
:100C0000099481E090E0F8940C940606F894FFCFE4
:100C10000000000010018C00D900B700CB00570184
:100C200000000000A6038C003100320033003400C5
:100C3000350036003700380039002A003000230024
:00000001FF
