:100000000C9462000C948A000C948A000C948A0070
:100010000C948A000C948A000C948A000C948A0038
:100020000C948A000C948A000C948A000C948A0028
:100030000C948A000C948A000C948A000C948A0018
:100040000C94DA040C948A000C94A8040C94820496
:100050000C948A000C948A000C948A000C948A00F8
:100060000C948A000C948A000000000024002700F1
:100070002A0000000000250028002B0000000000DE
:1000800023002600290004040404040404040202DA
:100090000202020203030303030301020408102007
:1000A0004080010204081020010204081020000012
:1000B0000008000201000003040700000000000027
:1000C0000000240511241FBECFEFD8E0DEBFCDBF56
:1000D00011E0A0E0B1E0E8EFF0E102C005900D9280
:1000E000AA33B107D9F721E0AAE3B1E001C01D921C
:1000F000AA3FB207E1F710E0C2E6D0E004C02197C2
:10010000FE010E946F08C136D107C9F70E946F0532
:100110000C947A080C940000CF92DF92EF92FF9239
:100120000F931F93CF93DF936C017A018B01C0E093
:10013000D0E0CE15DF0589F0D8016D918D01D60193
:10014000ED91FC910190F081E02DC6010995892B7C
:1001500011F47E0102C02196ECCFC701DF91CF914F
:100160001F910F91FF90EF90DF90CF900895FC01C9
:10017000918D828D981761F0828DDF01A80FB11DDE
:100180005D968C91928D9F5F9F73928F90E0089502
:100190008FEF9FEF0895FC01918D828D981731F0BC
:1001A000828DE80FF11D858D90E008958FEF9FEF10
:1001B0000895FC01918D228D892F90E0805C9F4FE6
:1001C000821B91098F739927089585E491E00E941D
:1001D000D90021E0892B09F420E0822F0895FC0149
:1001E000848DDF01A80FB11DA35ABF4F2C91848DC0
:1001F00090E001968F739927848FA689B7892C93F5
:10020000A089B1898C9180648C93938D848D98138F
:1002100006C00288F389E02D80818F7D8083089558
:10022000EF92FF920F931F93CF93DF93EC0181E046
:10023000888F9B8D8C8D981305C0E889F989808102
:1002400085FD24C0F62E0B8D10E00F5F1F4F0F733E
:100250001127E02E8C8DE8120CC00FB607FCFACFE8
:10026000E889F989808185FFF5CFCE010E94EF00F2
:10027000F1CF8B8DFE01E80FF11DE35AFF4FF082A5
:100280000B8FEA89FB898081806207C0EE89FF8934
:100290006083E889F98980818064808381E090E0CF
:1002A000DF91CF911F910F91FF90EF900895CF9321
:1002B000DF93EC01888D8823C9F0EA89FB8980816E
:1002C00085FD05C0A889B9898C9186FD0FC00FB640
:1002D00007FCF5CF808185FFF2CFA889B9898C9181
:1002E00085FFEDCFCE010E94EF00E7CFDF91CF91E8
:1002F000089580E090E0892B29F00E94E5008111AB
:100300000C9400000895833081F028F4813099F036
:100310008230A1F008958730A9F08830B9F0843098
:10032000D1F4809180008F7D03C0809180008F7711
:1003300080938000089584B58F7702C084B58F7D47
:1003400084BD08958091B0008F7703C08091B00084
:100350008F7D8093B0000895CF93DF93282F30E0F6
:10036000F901E255FF4F8491F901E656FF4FD49110
:10037000F901EA57FF4FC491CC2391F081110E94FB
:100380008301EC2FF0E0EE0FFF1FE458FF4FA59123
:10039000B491EC91ED2381E090E021F480E002C083
:1003A00080E090E0DF91CF9108951F93CF93DF938A
:1003B000282F30E0F901E255FF4F8491F901E6560C
:1003C000FF4FD491F901EA57FF4FC491CC23C9F0F4
:1003D000162F81110E948301EC2FF0E0EE0FFF1F1A
:1003E000EE58FF4FA591B4918FB7F894111105C045
:1003F0009C91ED2FE095E92302C0EC91ED2BEC935D
:100400008FBFDF91CF911F910895CF93DF9390E03D
:10041000FC01E656FF4F2491FC01EA57FF4F8491FF
:10042000882361F190E0880F991FFC01E859FF4F84
:10043000C591D491FC01EE58FF4FA591B491611183
:1004400009C09FB7F8948881209582238883EC9116
:100450002E230BC0623061F49FB7F8943881822F4D
:10046000809583238883EC912E2B2C939FBF06C00D
:100470008FB7F894E8812E2B28838FBFDF91CF911F
:1004800008953FB7F89480913F0190914001A09169
:100490004101B091420126B5A89B05C02F3F19F03C
:1004A0000196A11DB11D3FBFBA2FA92F982F8827F4
:1004B000820F911DA11DB11DBC01CD0142E0660F4F
:1004C000771F881F991F4A95D1F708958F929F92A1
:1004D000AF92BF92CF92DF92EF92FF920E944102C1
:1004E0004B015C018CE3C82ED12CE12CF12C0E9435
:1004F0004102DC01CB0188199909AA09BB09883E90
:100500009340A105B10558F021E0C21AD108E108D5
:10051000F10888EE880E83E0981EA11CB11CC1145E
:10052000D104E104F10419F7FF90EF90DF90CF9030
:10053000BF90AF909F908F900895CF93DF93EC0181
:1005400060E08E810E94D50161E08E810E94D5011C
:1005500060E08E810E94D5018BE891E00197F1F770
:10056000DF91CF910895CF92DF92EF92FF920F9398
:100570001F93CF93DF937C016C0187E0C80ED11CE1
:10058000C0E0D0E0062F10E0B8010C2E02C0759537
:1005900067950A94E2F76170F60181916F010E94FC
:1005A000D5012196C430D10579F7C701DF91CF91EC
:1005B0001F910F91FF90EF90DF90CF900C949D02D0
:1005C000CF92DF92EF92FF920F931F93CF93DF931F
:1005D000EC01F62E642F8C810E94D5018D818F3F16
:1005E00019F060E00E94D5018F850F2D10E084FF87
:1005F00025C06E0187E0C80ED11CE12CF12CB8019A
:100600000E2C02C0759567950A94E2F76170F601A9
:1006100081916F010E94D501FFEFEF1AFF0A88E078
:10062000E816F10461F7CE01DF91CF911F910F9190
:10063000FF90EF90DF90CF900C949D02B80184E082
:10064000759567958A95E1F7CE010E94B3026F2DEB
:10065000CE01DF91CF911F910F91FF90EF90DF902E
:10066000CF900C94B30241E00E94E00281E090E060
:10067000089540E00C94E002E1E08091F5018111E1
:10068000E0E0E195F0E0EE51FE4F6489606882EEB3
:1006900091E00C94390361E00E9439038BE39FE100
:1006A0000197F1F70895EF92FF920F931F93CF9365
:1006B000DF93EC01623018F08F8588608F876B8B39
:1006C0001C8A80E48D8B80E18E8B80E58F8B61E0CE
:1006D0008C810E9405028D818F3F19F061E00E949C
:1006E000050261E08E810E9405027E0187E0E80E2E
:1006F000F11C00E010E08F8584FD03C084E090E0F1
:1007000002C088E090E0081719074CF461E0F70197
:1007100081917F010E9405020F5F1F4FECCF8BE399
:100720009DE00197F1F760E08C810E94D50160E0C7
:100730008E810E94D5018D818F3F19F060E00E946B
:10074000D5016F8564FD1DC063E0CE010E94B30238
:100750000BE416E4C8010197F1F763E0CE010E94B3
:10076000B302C8010197F1F763E0CE010E94B30222
:1007700083E592E00197F1F762E0CE010E94B302B7
:1007800016C06062CE010E9439038BE496E40197A3
:10079000F1F76F856062CE010E94390383E592E034
:1007A0000197F1F76F856062CE010E9439036F8572
:1007B0006062CE010E94390384E0888B6CE0CE0138
:1007C0000E943903CE010E944B0382E0898B66E0D0
:1007D000CE01DF91CF911F910F91FF90EF900C947C
:1007E0003903009769F0FC0101900020E9F7319787
:1007F000AF01481B590BBC0182EE91E00C948C00B8
:1008000080E090E008950C94F1038F929F92AF9254
:10081000BF92CF92DF92EF92FF920F931F93CF93ED
:10082000DF93CDB7DEB7A1970FB6F894DEBF0FBE4A
:10083000CDBF6C01990FEE08FF08F7FE31C0E091C3
:10084000E201F091E3010190F081E02D6DE282EE92
:1008500091E009958C0122273327A9012C193D0924
:100860004E095F0919A2CE0181967C019AE0892E7A
:10087000912CA12CB12CCA01B901A50194010E94AF
:100880003908605DF70162937F012115310541054B
:10089000510589F7CF010E94F103800F911F1DC000
:1008A000A701960119A28E010F5D1F4F8AE0C82E85
:1008B000D12CE12CF12CCA01B901A70196010E94AB
:1008C0003908605DF80162938F01211531054105FA
:1008D000510589F7CF010E94F103A1960FB6F89454
:1008E000DEBF0FBECDBFDF91CF911F910F91FF9063
:1008F000EF90DF90CF90BF90AF909F908F90089532
:100900000E9475081F920F920FB60F9211242F9319
:100910003F934F935F936F937F938F939F93AF9387
:10092000BF93EF93FF9385E491E00E94EF00FF9166
:10093000EF91BF91AF919F918F917F916F915F9157
:100940004F913F912F910F900FBE0F901F901895D0
:100950001F920F920FB60F9211242F938F939F9394
:10096000EF93FF93E0915501F09156018081E09162
:100970005B01F0915C0182FD12C0908180915E016B
:100980008F5F8F7320915F01821751F0E0915E01BC
:10099000F0E0EB5BFE4F958F80935E0101C080819C
:1009A000FF91EF919F918F912F910F900FBE0F901C
:1009B0001F9018951F920F920FB60F9211242F932C
:1009C0003F938F939F93AF93BF9380913B019091FF
:1009D0003C01A0913D01B0913E0130913A0123E0EC
:1009E000230F2D3720F40196A11DB11D05C026E867
:1009F000230F0296A11DB11D20933A0180933B0164
:100A000090933C01A0933D01B0933E0180913F0142
:100A100090914001A0914101B09142010196A11D28
:100A2000B11D80933F0190934001A0934101B09389
:100A30004201BF91AF919F918F913F912F910F9064
:100A40000FBE0F901F901895E5E4F1E0138212821B
:100A500088EE93E0A0E0B0E084839583A683B7831B
:100A600088E091E09183808385EC90E0958784878E
:100A700084EC90E09787868780EC90E0918B808B68
:100A800081EC90E0938B828B82EC90E0958B848B51
:100A900086EC90E0978B868B118E128E138E148EBF
:100AA000E2EEF1E01382128288E191E0918380838B
:100AB0008DE084838FEF85838CE086838BE0878352
:100AC0008AE0808789E0818788E0828713861486A0
:100AD00015861686178661E0CF010C94530378942F
:100AE00084B5826084BD84B5816084BD85B5826033
:100AF00085BD85B5816085BD80916E0081608093E4
:100B00006E0010928100809181008260809381004C
:100B1000809181008160809381008091800081605C
:100B2000809380008091B10084608093B1008091B7
:100B3000B00081608093B00080917A0084608093DF
:100B40007A0080917A00826080937A0080917A00A6
:100B5000816080937A0080917A00806880937A0027
:100B60001092C10061E087E00E94050261E086E02A
:100B70000E94050261E085E00E94050261E084E0D8
:100B80000E94050262E083E00E94050262E082E0CA
:100B90000E94050262E083E10E94050262E082E1B8
:100BA0000E94050262E082EE91E00E945303E09110
:100BB0005501F091560182E08083E0915101F0915E
:100BC00052011082E0915301F09154018FEC808327
:100BD00010925D01E0915901F0915A0186E0808305
:100BE000E0915701F0915801808180618083E0910C
:100BF0005701F0915801808188608083E09157010E
:100C0000F0915801808180688083E0915701F091D4
:100C1000580180818F7D808388E0282E312C99E0D7
:100C2000492E512CCFEFDFEF24E0622E712C05E02E
:100C300010E036E0E32EF12CCC24C394D12C52E00A
:100C4000A52EB12C63E0862E912C60E087E00E94F7
:100C5000D50183E00E94AC01892BB9F48CE191E0CD
:100C60000E9403048091020190910301019639F4DE
:100C700087E090E0909303018093020106C087E033
:100C800090E0909301018093000182E00E94AC010A
:100C9000892B99F48EE191E00E9403048091020176
:100CA00090910301019629F43092030120920201F0
:100CB00004C0309201012092000183E10E94AC0146
:100CC000892B99F480E291E00E9403048091020153
:100CD00090910301019629F4509203014092020180
:100CE00004C0509201014092000182E10E94AC01D7
:100CF000892B61F50E943C0382EE91E00E944B0338
:100D000080910201909103010E94050482E291E02A
:100D10000E94030480910001909101010E9405044A
:100D20008091020190910301609100017091010195
:100D30000E9425087093440160934301D0930301FE
:100D4000C0930201D0930101C09300010E9466028A
:100D500061E087E00E94D50160E086E00E94D50155
:100D600083E00E94AC01892B99F484E291E00E9417
:100D700003048091020190910301019629F470927D
:100D800003016092020104C07092010160920001AF
:100D900082E00E94AC01892B99F486E291E00E94E6
:100DA00003048091020190910301019629F41093AC
:100DB00003010093020104C010930101009300019C
:100DC00083E10E94AC01892B99F488E291E00E94B2
:100DD00003048091020190910301019629F4F0929D
:100DE0000301E092020104C0F0920101E0920001CF
:100DF00082E10E94AC01892B89F50E943C0382EEBE
:100E000091E00E944B0380910201909103010E94A6
:100E100005048AE291E00E94030480910001909110
:100E200001010E94050440910201509103012091AB
:100E3000000130910101429FC001439F900D529FDC
:100E4000900D11249093440180934301D0930301AA
:100E5000C0930201D0930101C09300010E94660279
:100E600061E086E00E94D50160E085E00E94D50146
:100E700083E00E94AC01892B99F48CE291E00E94FE
:100E800003048091020190910301019629F4D0920C
:100E90000301C092020104C0D0920101C09200017E
:100EA00082E00E94AC01892B99F48EE291E00E94CD
:100EB00003048091020190910301019629F4B092FC
:100EC0000301A092020104C0B0920101A0920001AE
:100ED00083E10E94AC01892B99F480E391E00E94A8
:100EE00003048091020190910301019629F49092EC
:100EF00003018092020104C09092010180920001DE
:100F000082E10E94AC01892B61F50E943C0382EED4
:100F100091E00E944B0380910201909103010E9495
:100F2000050482E391E00E94030480910001909106
:100F300001010E940504809102019091030120911A
:100F4000000130910101821B930B90934401809327
:100F50004301D0930301C0930201D0930101C093D8
:100F600000010E94660261E085E00E94D50160E018
:100F700084E00E94D50183E00E94AC01892B21F41A
:100F800082EE91E00E944B0382E00E94AC01892B2B
:100F900099F484E391E00E9403048091020190910E
:100FA0000301019629F4109203011092020104C07A
:100FB000109201011092000183E10E94AC01892B83
:100FC00051F486E391E00E940304809143019091E3
:100FD00044010E94050482E10E94AC01892B61F565
:100FE0000E943C0382EE91E00E944B03809102013B
:100FF000909103010E94050488E391E00E9403049C
:1010000080910001909101010E940504209102014C
:10101000309103018091000190910101820F931F93
:101020009093440180934301D0930301C093020144
:10103000D0930101C09300010E94660261E084E048
:101040000E94D5010E94790100CE97FB072E16F46D
:10105000009407D077FD09D00E945B0807FC05D0FB
:101060003EF4909581959F4F0895709561957F4FBF
:101070000895A1E21A2EAA1BBB1BFD010DC0AA1FD9
:10108000BB1FEE1FFF1FA217B307E407F50720F0F1
:10109000A21BB30BE40BF50B661F771F881F991F6C
:1010A0001A9469F760957095809590959B01AC01B5
:1010B000BD01CF010895AA1BBB1B51E107C0AA1FA8
:1010C000BB1FA617B70710F0A61BB70B881F991FE9
:1010D0005A95A9F780959095BC01CD010895EE0F22
:1010E000FF1F0590F491E02D099481E090E0F894C1
:0810F0000C947A08F894FFCF7C
:1010F800FFFFFFFF0000000010018C00D900B700BF
:10110800CB0057010000000033038C003700380083
:1011180039002F0034003500360058003100320005
:0A11280033002D0030003D002B00C5
:107E0000112484B714BE81FFF0D085E080938100F7
:107E100082E08093C00088E18093C10086E0809377
:107E2000C20080E18093C4008EE0C9D0259A86E02C
:107E300020E33CEF91E0309385002093840096BBD3
:107E4000B09BFECF1D9AA8958150A9F7CC24DD24C4
:107E500088248394B5E0AB2EA1E19A2EF3E0BF2EE7
:107E6000A2D0813461F49FD0082FAFD0023811F036
:107E7000013811F484E001C083E08DD089C08234E0
:107E800011F484E103C0853419F485E0A6D080C0E4
:107E9000853579F488D0E82EFF2485D0082F10E0AE
:107EA000102F00270E291F29000F111F8ED06801E7
:107EB0006FC0863521F484E090D080E0DECF843638
:107EC00009F040C070D06FD0082F6DD080E0C81688
:107ED00080E7D80618F4F601B7BEE895C0E0D1E017
:107EE00062D089930C17E1F7F0E0CF16F0E7DF06D8
:107EF00018F0F601B7BEE89568D007B600FCFDCFD4
:107F0000A601A0E0B1E02C9130E011968C91119780
:107F100090E0982F8827822B932B1296FA010C0160
:107F200087BEE89511244E5F5F4FF1E0A038BF0790
:107F300051F7F601A7BEE89507B600FCFDCF97BE46
:107F4000E89526C08437B1F42ED02DD0F82E2BD052
:107F50003CD0F601EF2C8F010F5F1F4F84911BD097
:107F6000EA94F801C1F70894C11CD11CFA94CF0C13
:107F7000D11C0EC0853739F428D08EE10CD085E9AC
:107F80000AD08FE07ACF813511F488E018D01DD067
:107F900080E101D065CF982F8091C00085FFFCCF94
:107FA0009093C60008958091C00087FFFCCF809118
:107FB000C00084FD01C0A8958091C6000895E0E648
:107FC000F0E098E1908380830895EDDF803219F02E
:107FD00088E0F5DFFFCF84E1DECF1F93182FE3DFCA
:107FE0001150E9F7F2DF1F91089580E0E8DFEE27F6
:047FF000FF270994CA
:027FFE00040479
:0400000300007E007B
:00000001FF
