:100000000C9462000C948A000C948A000C948A0070
:100010000C948A000C948A000C948A000C948A0038
:100020000C948A000C948A000C948A000C948A0028
:100030000C948A000C948A000C948A000C948A0018
:100040000C9452040C948A000C9420040C94FA032F
:100050000C948A000C948A000C948A000C948A00F8
:100060000C948A000C948A000000000024002700F1
:100070002A0000000000250028002B0000000000DE
:1000800023002600290004040404040404040202DA
:100090000202020203030303030301020408102007
:1000A0004080010204081020010204081020000012
:1000B0000008000201000003040700000000000027
:1000C00000009C0411241FBECFEFD8E0DEBFCDBFDF
:1000D00011E0A0E0B1E0EAE8F1E102C005900D9284
:1000E000AC35B107D9F722E0ACE5B1E001C01D9213
:1000F000AC32B207E1F710E0C2E6D0E004C02197CD
:10010000FE010E94B808C136D107C9F70E94E70472
:100110000C94C3080C940000CF92DF92EF92FF92F0
:100120000F931F93CF93DF936C017A018B01C0E093
:10013000D0E0CE15DF0589F0D8016D918D01D60193
:10014000ED91FC910190F081E02DC6010995892B7C
:1001500011F47E0102C02196ECCFC701DF91CF914F
:100160001F910F91FF90EF90DF90CF900895FC01C9
:10017000918D828D981761F0828DDF01A80FB11DDE
:100180005D968C91928D9F5F9F73928F90E0089502
:100190008FEF9FEF0895FC01918D828D981731F0BC
:1001A000828DE80FF11D858D90E008958FEF9FEF10
:1001B0000895FC01918D228D892F90E0805C9F4FE6
:1001C000821B91098F739927089587E791E00E9418
:1001D000D90021E0892B09F420E0822F0895FC0149
:1001E000848DDF01A80FB11DA35ABF4F2C91848DC0
:1001F00090E001968F739927848FA689B7892C93F5
:10020000A089B1898C9180648C93938D848D98138F
:1002100006C00288F389E02D80818F7D8083089558
:10022000EF92FF920F931F93CF93DF93EC0181E046
:10023000888F9B8D8C8D981305C0E889F989808102
:1002400085FD24C0F62E0B8D10E00F5F1F4F0F733E
:100250001127E02E8C8DE8120CC00FB607FCFACFE8
:10026000E889F989808185FFF5CFCE010E94EF00F2
:10027000F1CF8B8DFE01E80FF11DE35AFF4FF082A5
:100280000B8FEA89FB898081806207C0EE89FF8934
:100290006083E889F98980818064808381E090E0CF
:1002A000DF91CF911F910F91FF90EF900895CF9321
:1002B000DF93EC01888D8823C9F0EA89FB8980816E
:1002C00085FD05C0A889B9898C9186FD0FC00FB640
:1002D00007FCF5CF808185FFF2CFA889B9898C9181
:1002E00085FFEDCFCE010E94EF00E7CFDF91CF91E8
:1002F000089580E090E0892B29F00E94E5008111AB
:100300000C9400000895833081F028F4813099F036
:100310008230A1F008958730A9F08830B9F0843098
:10032000D1F4809180008F7D03C0809180008F7711
:1003300080938000089584B58F7702C084B58F7D47
:1003400084BD08958091B0008F7703C08091B00084
:100350008F7D8093B0000895CF93DF93282F30E0F6
:10036000F901E255FF4F8491F901E656FF4FD49110
:10037000F901EA57FF4FC491CC2391F081110E94FB
:100380008301EC2FF0E0EE0FFF1FE458FF4FA59123
:10039000B491EC91ED2381E090E021F480E002C083
:1003A00080E090E0DF91CF9108951F93CF93DF938A
:1003B000282F30E0F901E255FF4F8491F901E6560C
:1003C000FF4FD491F901EA57FF4FC491CC23C9F0F4
:1003D000162F81110E948301EC2FF0E0EE0FFF1F1A
:1003E000EE58FF4FA591B4918FB7F894111105C045
:1003F0009C91ED2FE095E92302C0EC91ED2BEC935D
:100400008FBFDF91CF911F910895CF93DF9390E03D
:10041000FC01E656FF4F2491FC01EA57FF4F8491FF
:10042000882361F190E0880F991FFC01E859FF4F84
:10043000C591D491FC01EE58FF4FA591B491611183
:1004400009C09FB7F8948881209582238883EC9116
:100450002E230BC0623061F49FB7F8943881822F4D
:10046000809583238883EC912E2B2C939FBF06C00D
:100470008FB7F894E8812E2B28838FBFDF91CF911F
:1004800008953FB7F8948091610190916201A09125
:100490006301B091640126B5A89B05C02F3F19F0F8
:1004A0000196A11DB11D3FBFBA2FA92F982F8827F4
:1004B000820F911DA11DB11DBC01CD0142E0660F4F
:1004C000771F881F991F4A95D1F708958F929F92A1
:1004D000AF92BF92CF92DF92EF92FF920E944102C1
:1004E0004B015C018CE3C82ED12CE12CF12C0E9435
:1004F0004102DC01CB0188199909AA09BB09883E90
:100500009340A105B10558F021E0C21AD108E108D5
:10051000F10888EE880E83E0981EA11CB11CC1145E
:10052000D104E104F10419F7FF90EF90DF90CF9030
:10053000BF90AF909F908F900895CF93DF93EC0181
:1005400060E08E810E94D50161E08E810E94D5011C
:1005500060E08E810E94D5018BE891E00197F1F770
:10056000DF91CF910895CF92DF92EF92FF920F9398
:100570001F93CF93DF937C016C0187E0C80ED11CE1
:10058000C0E0D0E0062F10E0B8010C2E02C0759537
:1005900067950A94E2F76170F60181916F010E94FC
:1005A000D5012196C430D10579F7C701DF91CF91EC
:1005B0001F910F91FF90EF90DF90CF900C949D02D0
:1005C000CF92DF92EF92FF920F931F93CF93DF931F
:1005D000EC01F62E642F8C810E94D5018D818F3F16
:1005E00019F060E00E94D5018F850F2D10E084FF87
:1005F00025C06E0187E0C80ED11CE12CF12CB8019A
:100600000E2C02C0759567950A94E2F76170F601A9
:1006100081916F010E94D501FFEFEF1AFF0A88E078
:10062000E816F10461F7CE01DF91CF911F910F9190
:10063000FF90EF90DF90CF900C949D02B80184E082
:10064000759567958A95E1F7CE010E94B3026F2DEB
:10065000CE01DF91CF911F910F91FF90EF90DF902E
:10066000CF900C94B30241E00E94E00281E090E060
:10067000089540E061E00E94E0028BE39FE1019772
:10068000F1F70895EF92FF920F931F93CF93DF93AB
:10069000EC01623018F08F8588608F876B8B1C8A25
:1006A00080E48D8B80E18E8B80E58F8B61E08C8187
:1006B0000E9405028D818F3F19F061E00E940502C2
:1006C00061E08E810E9405027E0187E0E80EF11C48
:1006D00000E010E08F8584FD03C084E090E002C05C
:1006E00088E090E0081719074CF461E0F701819168
:1006F0007F010E9405020F5F1F4FECCF8BE39DE04F
:100700000197F1F760E08C810E94D50160E08E8155
:100710000E94D5018D818F3F19F060E00E94D501C4
:100720006F8564FD1DC063E0CE010E94B3020BE43F
:1007300016E4C8010197F1F763E0CE010E94B3020D
:10074000C8010197F1F763E0CE010E94B30283E58F
:1007500092E00197F1F762E0CE010E94B30219C066
:10076000606240E0CE010E94E0028BE496E40197D3
:10077000F1F76F85606240E0CE010E94E00283E500
:1007800092E00197F1F76F85606240E0CE010E9430
:10079000E0026F85606240E0CE010E94E00284E0EA
:1007A000888B40E06CE0CE010E94E002CE010E9406
:1007B000390382E0898B40E066E0CE01DF91CF9182
:1007C0001F910F91FF90EF900C94E002009769F059
:1007D000FC0101900020E9F73197AF01481B590B4C
:1007E000BC0184E192E00C948C0080E090E00895DC
:1007F0000E94BE081F920F920FB60F9211242F93E2
:100800003F934F935F936F937F938F939F93AF9398
:10081000BF93EF93FF9387E791E00E94EF00FF9172
:10082000EF91BF91AF919F918F917F916F915F9168
:100830004F913F912F910F900FBE0F901F901895E1
:100840001F920F920FB60F9211242F938F939F93A5
:10085000EF93FF93E0918701F09188018081E0910F
:100860008D01F0918E0182FD12C0908180919001E6
:100870008F5F8F7320919101821751F0E091900169
:10088000F0E0E958FE4F958F8093900101C0808180
:10089000FF91EF919F918F912F910F900FBE0F902D
:1008A0001F9018951F920F920FB60F9211242F933D
:1008B0003F938F939F93AF93BF9380915D019091EE
:1008C0005E01A0915F01B091600130915C0123E075
:1008D000230F2D3720F40196A11DB11D05C026E878
:1008E000230F0296A11DB11D20935C0180935D0131
:1008F00090935E01A0935F01B093600180916101CC
:1009000090916201A0916301B09164010196A11DD3
:10091000B11D8093610190936201A0936301B09334
:100920006401BF91AF919F918F913F912F910F9053
:100930000FBE0F901F901895E7E7F1E01382128227
:1009400088EE93E0A0E0B0E084839583A683B7832C
:1009500080E191E09183808385EC90E095878487A6
:1009600084EC90E09787868780EC90E0918B808B79
:1009700081EC90E0938B828B82EC90E0958B848B62
:1009800086EC90E0978B868B118E128E138E148ED0
:10099000E4E1F2E01382128280E291E091838083AD
:1009A0008DE084838FEF85838CE086838BE0878363
:1009B0008AE0808789E0818788E0828713861486B1
:1009C00015861686178661E0CF010C944203789451
:1009D00084B5826084BD84B5816084BD85B5826044
:1009E00085BD85B5816085BD80916E0081608093F5
:1009F0006E0010928100809181008260809381005E
:100A0000809181008160809381008091800081606D
:100A1000809380008091B10084608093B1008091C8
:100A2000B00081608093B00080917A0084608093F0
:100A30007A0080917A00826080937A0080917A00B7
:100A4000816080937A0080917A00806880937A0038
:100A50001092C10061E087E00E94050261E086E03B
:100A60000E94050261E085E00E94050261E084E0E9
:100A70000E94050262E083E00E94050262E082E0DB
:100A80000E94050262E083E10E94050261E082E1CA
:100A90000E94050260E081E10E94050283E090E08F
:100AA000909366018093650110926801109267012E
:100AB00090936A018093690190936C0180936B011C
:100AC00010926E0110926D019093700180936F01EE
:100AD00062E084E192E00E944203E0918701F0919C
:100AE000880182E08083E0918301F091840110828B
:100AF000E0918501F09186018FEC808310928F0147
:100B0000E0918B01F0918C0186E08083E091890176
:100B1000F0918A01808180618083E0918901F09168
:100B20008A01808188608083E0918901F0918A0147
:100B3000808180688083E0918901F0918A018081C1
:100B40008F7D808373E0272E312CE4E04E2E512CD4
:100B5000F5E06F2E712CC6E0D0E007E010E0A8E0D1
:100B6000EA2EF12CB9E0CB2ED12C8AE2A82EB12CA2
:100B700093E2892E912C80917301909174010697D4
:100B800091F48091710190917201069761F484E172
:100B900092E00E94390384E291E00E94E60361E062
:100BA00082E10E94D50180917301909174010697B2
:100BB00024F180917501909176010697F4F080916F
:100BC0007101909172010697C1F084E192E00E9458
:100BD000390383E391E00E94E603109276011092BC
:100BE00075011092740110927301109272011092AB
:100BF000710160E082E10E94D50160E087E00E941F
:100C0000D50183E00E94AC01892BA9F58091750183
:100C1000909176010196909376018093750189E514
:100C200091E00E94E60380917301909174018630F7
:100C300091050CF59C01220F331FF901E050FF4F85
:100C400041E050E051834083F901EB59FE4F208190
:100C500031812130310551F42091710130917201BF
:100C60002F5F3F4F30937201209371010196909353
:100C700074018093730182E00E94AC01892BA9F575
:100C80008091750190917601019690937601809301
:100C9000750182E491E00E94E603809173019091D6
:100CA0007401863091050CF59C01220F331FF90168
:100CB000E050FF4F42E050E051834083F901EB598F
:100CC000FE4F208131812230310551F42091710194
:100CD000309172012F5F3F4F309372012093710169
:100CE0000196909374018093730183E10E94AC019B
:100CF000892B99F5809175019091760101969093D9
:100D000076018093750184E491E00E94E60380916E
:100D100073019091740186309105FCF49C01220FBF
:100D2000331FF901E050FF4F31822082F901EB5966
:100D3000FE4F208131812330310551F42091710122
:100D4000309172012F5F3F4F3093720120937101F8
:100D5000019690937401809373010E94660261E092
:100D600087E00E94D50160E086E00E94D50183E023
:100D70000E94AC01892B99F58091750190917601C3
:100D80000196909376018093750186E491E00E942C
:100D9000E603809173019091740186309105FCF413
:100DA0009C01220F331FF901E050FF4F5182408216
:100DB000F901EB59FE4F208131812430310551F486
:100DC00020917101309172012F5F3F4F309372017A
:100DD000209371010196909374018093730182E0D6
:100DE0000E94AC01892B99F5809175019091760153
:100DF0000196909376018093750188E491E00E94BA
:100E0000E603809173019091740186309105FCF4A2
:100E10009C01220F331FF901E050FF4F7182608265
:100E2000F901EB59FE4F208131812530310551F414
:100E300020917101309172012F5F3F4F3093720109
:100E4000209371010196909374018093730183E163
:100E50000E94AC01892B99F58091750190917601E2
:100E6000019690937601809375018AE491E00E9447
:100E7000E603809173019091740186309105FCF432
:100E80009C01220F331FF901E050FF4FD183C08333
:100E9000F901EB59FE4F208131812630310551F4A3
:100EA00020917101309172012F5F3F4F3093720199
:100EB00020937101019690937401809373010E94B5
:100EC000660261E086E00E94D50160E085E00E9454
:100ED000D50183E00E94AC01892B99F580917501C1
:100EE00090917601019690937601809375018CE440
:100EF00091E00E94E6038091730190917401863025
:100F00009105FCF49C01220F331FF901E050FF4FC3
:100F100011830083F901EB59FE4F20813181273085
:100F2000310551F420917101309172012F5F3F4FD3
:100F30003093720120937101019690937401809314
:100F4000730182E00E94AC01892B99F580917501B3
:100F500090917601019690937601809375018EE4CD
:100F600091E00E94E60380917301909174018630B4
:100F70009105FCF49C01220F331FF901E050FF4F53
:100F8000F182E082F901EB59FE4F20813181283056
:100F9000310551F420917101309172012F5F3F4F63
:100FA00030937201209371010196909374018093A4
:100FB000730183E10E94AC01892B99F58091750141
:100FC000909176010196909376018093750180E56A
:100FD00091E00E94E6038091730190917401863044
:100FE0009105FCF49C01220F331FF901E050FF4FE3
:100FF000D182C082F901EB59FE4F20813181293025
:10100000310551F420917101309172012F5F3F4FF2
:101010003093720120937101019690937401809333
:1010200073010E94660261E085E00E94D50160E0E4
:1010300084E00E94D50183E00E94AC01892BE9F491
:10104000809175019091760101969093760180933D
:1010500075018091730190917401FC01EE0FFF1FE7
:10106000E050FF4FB182A08201969093740180936B
:10107000730182E591E00E94E60382E00E94AC01E8
:10108000892B91F58091750190917601019690934D
:1010900076018093750184E591E00E94E6038091DA
:1010A00073019091740186309105F4F49C01220F34
:1010B000331FF901E050FF4F11821082F901EB5903
:1010C000FE4F20813181232B51F420917101309109
:1010D00072012F5F3F4F309372012093710101968F
:1010E000909374018093730183E10E94AC01892B7A
:1010F000E9F48091750190917601019690937601C3
:10110000809375018091730190917401FC01EE0F41
:10111000FF1FE050FF4F91828082019690937401EF
:101120008093730186E591E00E94E60361E084E02C
:101130000E94D5010E94660281E10E94AC010197E4
:10114000A1F484E192E00E94390360E082E10E9410
:10115000D5011092760110927501109274011092CF
:10116000730110927201109271010E94790103CDF6
:10117000EE0FFF1F0590F491E02D099481E090E0BF
:0A118000F8940C94C308F894FFCF14
:10118A00580158015801580158015801000000003F
:10119A0010018C00D900B700CB00570100000000F5
:1011AA0033038C0052696768742070617373776FB8
:1011BA0072640057726F6E672070617373776F7213
:1011CA00640032003300340035003600370038003E
:0C11DA0039002A00300023002D310000F5
:00000001FF
